{
  "transactions": [
    {
      "hash": "0x350c3ad0a0e44786bae51b0dbb53f5f623bdff092bbd402476c6916f16faf7e7",
      "transactionType": "CALL",
      "contractName": null,
      "contractAddress": "0x8fdf52924524819f407d7ef760a87f23cd5f702a",
      "function": "applyChainUpdates((uint64,bool,bytes,bytes,(bool,uint128,uint128),(bool,uint128,uint128))[])",
      "arguments": [
        "[(16015286601757825753, true, 0x000000000000000000000000fa7f115c36014383703312b94cb2d49569a13192, 0x00000000000000000000000046c17610a52fe8bbeed115b47945742da7be15c2, (false, 0, 0), (false, 0, 0))]"
      ],
      "transaction": {
        "from": "0xa28de7725aebe0a8f727beccdcd80c12ae12d984",
        "to": "0x8fdf52924524819f407d7ef760a87f23cd5f702a",
        "gas": "0x47e79",
        "value": "0x0",
        "input": "0xdb6327dc000000000000000000000000000000000000000000000000000000000000002000000000000000000000000000000000000000000000000000000000000000010000000000000000000000000000000000000000000000000000000000000020000000000000000000000000000000000000000000000000de41ba4fc9d91ad90000000000000000000000000000000000000000000000000000000000000001000000000000000000000000000000000000000000000000000000000000014000000000000000000000000000000000000000000000000000000000000001800000000000000000000000000000000000000000000000000000000000000000000000000000000000000000000000000000000000000000000000000000000000000000000000000000000000000000000000000000000000000000000000000000000000000000000000000000000000000000000000000000000000000000000000000000000000000000000000000000000000000000000000000000000000000000000000000000000000000000000000000000000000000000000000000000000000000000000000000000000000000000000000000000000000000020000000000000000000000000fa7f115c36014383703312b94cb2d49569a13192000000000000000000000000000000000000000000000000000000000000002000000000000000000000000046c17610a52fe8bbeed115b47945742da7be15c2",
        "nonce": "0x1d",
        "chainId": "0x12c",
        "zksync": {
          "factoryDeps": [],
          "paymasterData": null,
          "forceEvmInterpreter": null
        }
      },
      "additionalContracts": [],
      "isFixedGasLimit": false
    }
  ],
  "receipts": [
    {
      "status": "0x1",
      "cumulativeGasUsed": "0x0",
      "logs": [
        {
          "address": "0x000000000000000000000000000000000000800a",
          "topics": [
            "0xddf252ad1be2c89b69c2b068fc378daa952ba7f163c4a11628f55a4df523b3ef",
            "0x000000000000000000000000a28de7725aebe0a8f727beccdcd80c12ae12d984",
            "0x0000000000000000000000000000000000000000000000000000000000008001"
          ],
          "data": "0x0000000000000000000000000000000000000000000000000000068b8add9c00",
          "blockHash": "0x858c0cdf7823c03d0fd8d99a5d914a24802f1325f3ddfa52ee1fd1a51fcd2947",
          "blockNumber": "0x602d7d",
          "blockTimestamp": "0x694354c5",
          "transactionHash": "0x350c3ad0a0e44786bae51b0dbb53f5f623bdff092bbd402476c6916f16faf7e7",
          "transactionIndex": "0x0",
          "logIndex": "0x0",
          "removed": false
        },
        {
          "address": "0x8fdf52924524819f407d7ef760a87f23cd5f702a",
          "topics": [
            "0x8d340f17e19058004c20453540862a9c62778504476f6756755cb33bcd6c38c2"
          ],
          "data": "0x000000000000000000000000000000000000000000000000de41ba4fc9d91ad90000000000000000000000000000000000000000000000000000000000000100000000000000000000000000000000000000000000000000000000000000000000000000000000000000000000000000000000000000000000000000000000000000000000000000000000000000000000000000000000000000000000000000000000000000000000000000000000000000000000000000000000000000000000000000000000000000000000000000000000000000000000000000000000000000000000000000000000000000000000000000000000000000000000000000000000000000000000000000000000000000000000000000000000000000002000000000000000000000000046c17610a52fe8bbeed115b47945742da7be15c2",
          "blockHash": "0x858c0cdf7823c03d0fd8d99a5d914a24802f1325f3ddfa52ee1fd1a51fcd2947",
          "blockNumber": "0x602d7d",
          "blockTimestamp": "0x694354c5",
          "transactionHash": "0x350c3ad0a0e44786bae51b0dbb53f5f623bdff092bbd402476c6916f16faf7e7",
          "transactionIndex": "0x0",
          "logIndex": "0x1",
          "removed": false
        },
        {
          "address": "0x000000000000000000000000000000000000800a",
          "topics": [
            "0xddf252ad1be2c89b69c2b068fc378daa952ba7f163c4a11628f55a4df523b3ef",
            "0x0000000000000000000000000000000000000000000000000000000000008001",
            "0x000000000000000000000000a28de7725aebe0a8f727beccdcd80c12ae12d984"
          ],
          "data": "0x0000000000000000000000000000000000000000000000000000034c1aadde00",
          "blockHash": "0x858c0cdf7823c03d0fd8d99a5d914a24802f1325f3ddfa52ee1fd1a51fcd2947",
          "blockNumber": "0x602d7d",
          "blockTimestamp": "0x694354c5",
          "transactionHash": "0x350c3ad0a0e44786bae51b0dbb53f5f623bdff092bbd402476c6916f16faf7e7",
          "transactionIndex": "0x0",
          "logIndex": "0x2",
          "removed": false
        }
      ],
      "logsBloom": "0x00008000000400400000000000000000000000000000000000000000000000000000000000000000000000000000000000000000000000000004000000000001000000000000040000000008000000000000000000000000000000000000080000000000000000000000000000000000000000000000000000000010000000000000000000000000000004000000000000000000000000000000000000000000202000000004100000000000000000000000000000000000000000000000000000000002008000000000000000000000000000000000000000000000000000000000000000000000000000000000000000000000000000000100000000200000",
      "type": "0x71",
      "transactionHash": "0x350c3ad0a0e44786bae51b0dbb53f5f623bdff092bbd402476c6916f16faf7e7",
      "transactionIndex": "0x0",
      "blockHash": "0x858c0cdf7823c03d0fd8d99a5d914a24802f1325f3ddfa52ee1fd1a51fcd2947",
      "blockNumber": "0x602d7d",
      "gasUsed": "0x22df8",
      "effectiveGasPrice": "0x17d7840",
      "from": "0xa28de7725aebe0a8f727beccdcd80c12ae12d984",
      "to": "0x8fdf52924524819f407d7ef760a87f23cd5f702a",
      "contractAddress": null,
      "l1BatchNumber": null,
      "l1BatchTxIndex": null,
      "l2ToL1Logs": []
    }
  ],
  "libraries": [],
  "pending": [],
  "returns": {},
  "timestamp": 1766020296812,
  "chain": 300,
  "commit": null
}