{
  "transactions": [
    {
      "hash": "0x7f71471782f0239a247b94f1fa20e70f86e18fdfd5b506764f9d053c5a934c56",
      "transactionType": "CALL",
      "contractName": null,
      "contractAddress": "0xcc05dc73bdae5d9a4945928b9a1880cbe84233fa",
      "function": "applyChainUpdates((uint64,bool,bytes,bytes,(bool,uint128,uint128),(bool,uint128,uint128))[])",
      "arguments": [
        "[(16015286601757825753, true, 0x0000000000000000000000001f63fa55871b42b5a07f4a116672cc31297c0d16, 0x00000000000000000000000002452e2a48b293e3e4602127c65b73c81b7722c9, (false, 0, 0), (false, 0, 0))]"
      ],
      "transaction": {
        "from": "0xa28de7725aebe0a8f727beccdcd80c12ae12d984",
        "to": "0xcc05dc73bdae5d9a4945928b9a1880cbe84233fa",
        "gas": "0x47e79",
        "value": "0x0",
        "input": "0xdb6327dc000000000000000000000000000000000000000000000000000000000000002000000000000000000000000000000000000000000000000000000000000000010000000000000000000000000000000000000000000000000000000000000020000000000000000000000000000000000000000000000000de41ba4fc9d91ad900000000000000000000000000000000000000000000000000000000000000010000000000000000000000000000000000000000000000000000000000000140000000000000000000000000000000000000000000000000000000000000018000000000000000000000000000000000000000000000000000000000000000000000000000000000000000000000000000000000000000000000000000000000000000000000000000000000000000000000000000000000000000000000000000000000000000000000000000000000000000000000000000000000000000000000000000000000000000000000000000000000000000000000000000000000000000000000000000000000000000000000000000000000000000000000000000000000000000000000000000000000000000000000000000000000000000200000000000000000000000001f63fa55871b42b5a07f4a116672cc31297c0d16000000000000000000000000000000000000000000000000000000000000002000000000000000000000000002452e2a48b293e3e4602127c65b73c81b7722c9",
        "nonce": "0x24",
        "chainId": "0x12c",
        "zksync": {
          "factoryDeps": [],
          "paymasterData": null,
          "forceEvmInterpreter": null
        }
      },
      "additionalContracts": [],
      "isFixedGasLimit": false
    }
  ],
  "receipts": [
    {
      "status": "0x1",
      "cumulativeGasUsed": "0x0",
      "logs": [
        {
          "address": "0x000000000000000000000000000000000000800a",
          "topics": [
            "0xddf252ad1be2c89b69c2b068fc378daa952ba7f163c4a11628f55a4df523b3ef",
            "0x000000000000000000000000a28de7725aebe0a8f727beccdcd80c12ae12d984",
            "0x0000000000000000000000000000000000000000000000000000000000008001"
          ],
          "data": "0x0000000000000000000000000000000000000000000000000000068b8add9c00",
          "blockHash": "0x06d3abbee2becfc0da5b9d4b32c128059aec76c97bb6f1343f36b51ea4c1b5fd",
          "blockNumber": "0x602e02",
          "blockTimestamp": "0x69436080",
          "transactionHash": "0x7f71471782f0239a247b94f1fa20e70f86e18fdfd5b506764f9d053c5a934c56",
          "transactionIndex": "0x0",
          "logIndex": "0x0",
          "removed": false
        },
        {
          "address": "0xcc05dc73bdae5d9a4945928b9a1880cbe84233fa",
          "topics": [
            "0x8d340f17e19058004c20453540862a9c62778504476f6756755cb33bcd6c38c2"
          ],
          "data": "0x000000000000000000000000000000000000000000000000de41ba4fc9d91ad90000000000000000000000000000000000000000000000000000000000000100000000000000000000000000000000000000000000000000000000000000000000000000000000000000000000000000000000000000000000000000000000000000000000000000000000000000000000000000000000000000000000000000000000000000000000000000000000000000000000000000000000000000000000000000000000000000000000000000000000000000000000000000000000000000000000000000000000000000000000000000000000000000000000000000000000000000000000000000000000000000000000000000000000000000002000000000000000000000000002452e2a48b293e3e4602127c65b73c81b7722c9",
          "blockHash": "0x06d3abbee2becfc0da5b9d4b32c128059aec76c97bb6f1343f36b51ea4c1b5fd",
          "blockNumber": "0x602e02",
          "blockTimestamp": "0x69436080",
          "transactionHash": "0x7f71471782f0239a247b94f1fa20e70f86e18fdfd5b506764f9d053c5a934c56",
          "transactionIndex": "0x0",
          "logIndex": "0x1",
          "removed": false
        },
        {
          "address": "0x000000000000000000000000000000000000800a",
          "topics": [
            "0xddf252ad1be2c89b69c2b068fc378daa952ba7f163c4a11628f55a4df523b3ef",
            "0x0000000000000000000000000000000000000000000000000000000000008001",
            "0x000000000000000000000000a28de7725aebe0a8f727beccdcd80c12ae12d984"
          ],
          "data": "0x0000000000000000000000000000000000000000000000000000034c1aadde00",
          "blockHash": "0x06d3abbee2becfc0da5b9d4b32c128059aec76c97bb6f1343f36b51ea4c1b5fd",
          "blockNumber": "0x602e02",
          "blockTimestamp": "0x69436080",
          "transactionHash": "0x7f71471782f0239a247b94f1fa20e70f86e18fdfd5b506764f9d053c5a934c56",
          "transactionIndex": "0x0",
          "logIndex": "0x2",
          "removed": false
        }
      ],
      "logsBloom": "0x00008000000400400000000000000000000000000000000000000004000000000000000000000000000000000000000000000000000000000004000000000000000000000000040000000008000000000000000000000000000000000000080000000000000000000000000000000000000000000000000000020010000000000000000000000000000004000000000000000000000000000000000000000000000000000004100000000000000000000000000000000000000000000000000000000002008000000000000000000000000000000000000002000000000000000000000000000000000000000000000000000000000000000100000000200000",
      "type": "0x71",
      "transactionHash": "0x7f71471782f0239a247b94f1fa20e70f86e18fdfd5b506764f9d053c5a934c56",
      "transactionIndex": "0x0",
      "blockHash": "0x06d3abbee2becfc0da5b9d4b32c128059aec76c97bb6f1343f36b51ea4c1b5fd",
      "blockNumber": "0x602e02",
      "gasUsed": "0x22df8",
      "effectiveGasPrice": "0x17d7840",
      "from": "0xa28de7725aebe0a8f727beccdcd80c12ae12d984",
      "to": "0xcc05dc73bdae5d9a4945928b9a1880cbe84233fa",
      "contractAddress": null,
      "l1BatchNumber": null,
      "l1BatchTxIndex": null,
      "l2ToL1Logs": []
    }
  ],
  "libraries": [],
  "pending": [],
  "returns": {},
  "timestamp": 1766023298297,
  "chain": 300,
  "commit": null
}