{
  "transactions": [
    {
      "hash": "0xd864a32b20c94d1d073b866165dce55740ecd0b43670d5fb81b96ddce309a171",
      "transactionType": "CALL",
      "contractName": null,
      "contractAddress": "0x6e18e0c26e200e8fb8735a0e78234948ebd91db5",
      "function": "applyChainUpdates((uint64,bool,bytes,bytes,(bool,uint128,uint128),(bool,uint128,uint128))[])",
      "arguments": [
        "[(16015286601757825753, true, 0x000000000000000000000000c699a3c09436952a75c44e20bab7d10246d19454, 0x000000000000000000000000eaf907c962df13c2e5e4b00e3ce5f748fad7dafc, (false, 0, 0), (false, 0, 0))]"
      ],
      "transaction": {
        "from": "0xa28de7725aebe0a8f727beccdcd80c12ae12d984",
        "to": "0x6e18e0c26e200e8fb8735a0e78234948ebd91db5",
        "gas": "0x47e79",
        "value": "0x0",
        "input": "0xdb6327dc000000000000000000000000000000000000000000000000000000000000002000000000000000000000000000000000000000000000000000000000000000010000000000000000000000000000000000000000000000000000000000000020000000000000000000000000000000000000000000000000de41ba4fc9d91ad90000000000000000000000000000000000000000000000000000000000000001000000000000000000000000000000000000000000000000000000000000014000000000000000000000000000000000000000000000000000000000000001800000000000000000000000000000000000000000000000000000000000000000000000000000000000000000000000000000000000000000000000000000000000000000000000000000000000000000000000000000000000000000000000000000000000000000000000000000000000000000000000000000000000000000000000000000000000000000000000000000000000000000000000000000000000000000000000000000000000000000000000000000000000000000000000000000000000000000000000000000000000000000000000000000000000000020000000000000000000000000c699a3c09436952a75c44e20bab7d10246d194540000000000000000000000000000000000000000000000000000000000000020000000000000000000000000eaf907c962df13c2e5e4b00e3ce5f748fad7dafc",
        "nonce": "0x2b",
        "chainId": "0x12c",
        "zksync": {
          "factoryDeps": [],
          "paymasterData": null,
          "forceEvmInterpreter": null
        }
      },
      "additionalContracts": [],
      "isFixedGasLimit": false
    }
  ],
  "receipts": [
    {
      "status": "0x1",
      "cumulativeGasUsed": "0x0",
      "logs": [
        {
          "address": "0x000000000000000000000000000000000000800a",
          "topics": [
            "0xddf252ad1be2c89b69c2b068fc378daa952ba7f163c4a11628f55a4df523b3ef",
            "0x000000000000000000000000a28de7725aebe0a8f727beccdcd80c12ae12d984",
            "0x0000000000000000000000000000000000000000000000000000000000008001"
          ],
          "data": "0x0000000000000000000000000000000000000000000000000000068b8add9c00",
          "blockHash": "0xeb06be1dbd369ec69857d07a47981b94081457e399550d2c62f6bef70e1b01a5",
          "blockNumber": "0x602e8d",
          "blockTimestamp": "0x69436b31",
          "transactionHash": "0xd864a32b20c94d1d073b866165dce55740ecd0b43670d5fb81b96ddce309a171",
          "transactionIndex": "0x0",
          "logIndex": "0x0",
          "removed": false
        },
        {
          "address": "0x6e18e0c26e200e8fb8735a0e78234948ebd91db5",
          "topics": [
            "0x8d340f17e19058004c20453540862a9c62778504476f6756755cb33bcd6c38c2"
          ],
          "data": "0x000000000000000000000000000000000000000000000000de41ba4fc9d91ad900000000000000000000000000000000000000000000000000000000000001000000000000000000000000000000000000000000000000000000000000000000000000000000000000000000000000000000000000000000000000000000000000000000000000000000000000000000000000000000000000000000000000000000000000000000000000000000000000000000000000000000000000000000000000000000000000000000000000000000000000000000000000000000000000000000000000000000000000000000000000000000000000000000000000000000000000000000000000000000000000000000000000000000000000000020000000000000000000000000eaf907c962df13c2e5e4b00e3ce5f748fad7dafc",
          "blockHash": "0xeb06be1dbd369ec69857d07a47981b94081457e399550d2c62f6bef70e1b01a5",
          "blockNumber": "0x602e8d",
          "blockTimestamp": "0x69436b31",
          "transactionHash": "0xd864a32b20c94d1d073b866165dce55740ecd0b43670d5fb81b96ddce309a171",
          "transactionIndex": "0x0",
          "logIndex": "0x1",
          "removed": false
        },
        {
          "address": "0x000000000000000000000000000000000000800a",
          "topics": [
            "0xddf252ad1be2c89b69c2b068fc378daa952ba7f163c4a11628f55a4df523b3ef",
            "0x0000000000000000000000000000000000000000000000000000000000008001",
            "0x000000000000000000000000a28de7725aebe0a8f727beccdcd80c12ae12d984"
          ],
          "data": "0x0000000000000000000000000000000000000000000000000000034c1aadde00",
          "blockHash": "0xeb06be1dbd369ec69857d07a47981b94081457e399550d2c62f6bef70e1b01a5",
          "blockNumber": "0x602e8d",
          "blockTimestamp": "0x69436b31",
          "transactionHash": "0xd864a32b20c94d1d073b866165dce55740ecd0b43670d5fb81b96ddce309a171",
          "transactionIndex": "0x0",
          "logIndex": "0x2",
          "removed": false
        }
      ],
      "logsBloom": "0x00008000000400400000000000000000000000000000000800000000000000000000000000000000000000000000000000000000000000000004000000000000000000000000040000000008000000000000000000000000000000000000080000000000000000000000000000000020000000000000000000000010000000000000000000000000000004000000000000000000000000000000000000000000000000000004100000000000000000000000000000000000000000000000000000000002008000000000200000000000000000000000000000000000000000000000000000000000000000000000000000000000000000000100000000200000",
      "type": "0x71",
      "transactionHash": "0xd864a32b20c94d1d073b866165dce55740ecd0b43670d5fb81b96ddce309a171",
      "transactionIndex": "0x0",
      "blockHash": "0xeb06be1dbd369ec69857d07a47981b94081457e399550d2c62f6bef70e1b01a5",
      "blockNumber": "0x602e8d",
      "gasUsed": "0x22df8",
      "effectiveGasPrice": "0x17d7840",
      "from": "0xa28de7725aebe0a8f727beccdcd80c12ae12d984",
      "to": "0x6e18e0c26e200e8fb8735a0e78234948ebd91db5",
      "contractAddress": null,
      "l1BatchNumber": null,
      "l1BatchTxIndex": null,
      "l2ToL1Logs": []
    }
  ],
  "libraries": [],
  "pending": [],
  "returns": {},
  "timestamp": 1766026036698,
  "chain": 300,
  "commit": null
}