{
  "transactions": [
    {
      "hash": "0x577dcd9c03a213f543190678f05c985e677376324163fac36eadb1cac0e5e6f1",
      "transactionType": "CALL",
      "contractName": null,
      "contractAddress": "0x37d005f5fa82add44eefe12b1073e6169dc5e57d",
      "function": "applyChainUpdates((uint64,bool,bytes,bytes,(bool,uint128,uint128),(bool,uint128,uint128))[])",
      "arguments": [
        "[(6898391096552792247, true, 0x000000000000000000000000160defa24366b374ab55b8c1b75b4568adc9d371, 0x0000000000000000000000006f471c362de5bb2c7ebe5e7b8874fdce181479b6, (false, 0, 0), (false, 0, 0))]"
      ],
      "transaction": {
        "from": "0xa28de7725aebe0a8f727beccdcd80c12ae12d984",
        "to": "0x37d005f5fa82add44eefe12b1073e6169dc5e57d",
        "gas": "0x553a3",
        "value": "0x0",
        "input": "0xdb6327dc0000000000000000000000000000000000000000000000000000000000000020000000000000000000000000000000000000000000000000000000000000000100000000000000000000000000000000000000000000000000000000000000200000000000000000000000000000000000000000000000005fbc02272fbf20b70000000000000000000000000000000000000000000000000000000000000001000000000000000000000000000000000000000000000000000000000000014000000000000000000000000000000000000000000000000000000000000001800000000000000000000000000000000000000000000000000000000000000000000000000000000000000000000000000000000000000000000000000000000000000000000000000000000000000000000000000000000000000000000000000000000000000000000000000000000000000000000000000000000000000000000000000000000000000000000000000000000000000000000000000000000000000000000000000000000000000000000000000000000000000000000000000000000000000000000000000000000000000000000000000000000000000020000000000000000000000000160defa24366b374ab55b8c1b75b4568adc9d37100000000000000000000000000000000000000000000000000000000000000200000000000000000000000006f471c362de5bb2c7ebe5e7b8874fdce181479b6",
        "nonce": "0x62",
        "chainId": "0xaa36a7"
      },
      "additionalContracts": [],
      "isFixedGasLimit": false
    }
  ],
  "receipts": [
    {
      "status": "0x1",
      "cumulativeGasUsed": "0xbad648",
      "logs": [
        {
          "address": "0x37d005f5fa82add44eefe12b1073e6169dc5e57d",
          "topics": [
            "0x8d340f17e19058004c20453540862a9c62778504476f6756755cb33bcd6c38c2"
          ],
          "data": "0x0000000000000000000000000000000000000000000000005fbc02272fbf20b7000000000000000000000000000000000000000000000000000000000000010000000000000000000000000000000000000000000000000000000000000000000000000000000000000000000000000000000000000000000000000000000000000000000000000000000000000000000000000000000000000000000000000000000000000000000000000000000000000000000000000000000000000000000000000000000000000000000000000000000000000000000000000000000000000000000000000000000000000000000000000000000000000000000000000000000000000000000000000000000000000000000000000000000000000000200000000000000000000000006f471c362de5bb2c7ebe5e7b8874fdce181479b6",
          "blockHash": "0xd02abea1d5cb5438c43af5698949b51acb23bd7335b225972d9fd86f936059de",
          "blockNumber": "0x968076",
          "blockTimestamp": "0x694352e8",
          "transactionHash": "0x577dcd9c03a213f543190678f05c985e677376324163fac36eadb1cac0e5e6f1",
          "transactionIndex": "0x37",
          "logIndex": "0x172",
          "removed": false
        }
      ],
      "logsBloom": "0x00000000000000400000000000000000000000000000000000000000000000000000000000000000000000000000000000000000000000000004000000000000000000000000000000000000000000000000000000000000000000000000000000000000000000000000000000000000000000000000000000000000000000000000000000000000000000000000000000000000002000000000000000000000000000000000000000000000000000000000000000000000000000000000000000000000000000000008000000000000000000000000000000000000000000000000000000000000200000000000000000000000000000000100000000000000",
      "type": "0x2",
      "transactionHash": "0x577dcd9c03a213f543190678f05c985e677376324163fac36eadb1cac0e5e6f1",
      "transactionIndex": "0x37",
      "blockHash": "0xd02abea1d5cb5438c43af5698949b51acb23bd7335b225972d9fd86f936059de",
      "blockNumber": "0x968076",
      "gasUsed": "0x3db40",
      "effectiveGasPrice": "0x102f61e8d",
      "from": "0xa28de7725aebe0a8f727beccdcd80c12ae12d984",
      "to": "0x37d005f5fa82add44eefe12b1073e6169dc5e57d",
      "contractAddress": null
    }
  ],
  "libraries": [],
  "pending": [],
  "returns": {},
  "timestamp": 1766019818145,
  "chain": 11155111,
  "commit": null
}