{
  "transactions": [
    {
      "hash": "0x75a6b9bfd0c8da2fc2496781d99d80c28abb48971378ab6ed4d0777d897bda8b",
      "transactionType": "CALL",
      "contractName": null,
      "contractAddress": "0xc699a3c09436952a75c44e20bab7d10246d19454",
      "function": "applyChainUpdates((uint64,bool,bytes,bytes,(bool,uint128,uint128),(bool,uint128,uint128))[])",
      "arguments": [
        "[(6898391096552792247, true, 0x0000000000000000000000006e18e0c26e200e8fb8735a0e78234948ebd91db5, 0x000000000000000000000000421870761481734ad67660c7ea6fbe79a3e7b31f, (false, 0, 0), (false, 0, 0))]"
      ],
      "transaction": {
        "from": "0xa28de7725aebe0a8f727beccdcd80c12ae12d984",
        "to": "0xc699a3c09436952a75c44e20bab7d10246d19454",
        "gas": "0x553a3",
        "value": "0x0",
        "input": "0xdb6327dc0000000000000000000000000000000000000000000000000000000000000020000000000000000000000000000000000000000000000000000000000000000100000000000000000000000000000000000000000000000000000000000000200000000000000000000000000000000000000000000000005fbc02272fbf20b700000000000000000000000000000000000000000000000000000000000000010000000000000000000000000000000000000000000000000000000000000140000000000000000000000000000000000000000000000000000000000000018000000000000000000000000000000000000000000000000000000000000000000000000000000000000000000000000000000000000000000000000000000000000000000000000000000000000000000000000000000000000000000000000000000000000000000000000000000000000000000000000000000000000000000000000000000000000000000000000000000000000000000000000000000000000000000000000000000000000000000000000000000000000000000000000000000000000000000000000000000000000000000000000000000000000000200000000000000000000000006e18e0c26e200e8fb8735a0e78234948ebd91db50000000000000000000000000000000000000000000000000000000000000020000000000000000000000000421870761481734ad67660c7ea6fbe79a3e7b31f",
        "nonce": "0x86",
        "chainId": "0xaa36a7"
      },
      "additionalContracts": [],
      "isFixedGasLimit": false
    }
  ],
  "receipts": [
    {
      "status": "0x1",
      "cumulativeGasUsed": "0x66ac2d",
      "logs": [
        {
          "address": "0xc699a3c09436952a75c44e20bab7d10246d19454",
          "topics": [
            "0x8d340f17e19058004c20453540862a9c62778504476f6756755cb33bcd6c38c2"
          ],
          "data": "0x0000000000000000000000000000000000000000000000005fbc02272fbf20b700000000000000000000000000000000000000000000000000000000000001000000000000000000000000000000000000000000000000000000000000000000000000000000000000000000000000000000000000000000000000000000000000000000000000000000000000000000000000000000000000000000000000000000000000000000000000000000000000000000000000000000000000000000000000000000000000000000000000000000000000000000000000000000000000000000000000000000000000000000000000000000000000000000000000000000000000000000000000000000000000000000000000000000000000000020000000000000000000000000421870761481734ad67660c7ea6fbe79a3e7b31f",
          "blockHash": "0x38aa8a09674ddddafd16a65bd4fdfb46db6fcef109576110597fe34d60e2c242",
          "blockNumber": "0x96824c",
          "blockTimestamp": "0x69436a64",
          "transactionHash": "0x75a6b9bfd0c8da2fc2496781d99d80c28abb48971378ab6ed4d0777d897bda8b",
          "transactionIndex": "0x1e",
          "logIndex": "0x84",
          "removed": false
        }
      ],
      "logsBloom": "0x00000000000000400000000000000000000000000000000000000000000000000000000000000000000000000000000000000000000000000004000000000000000000000000000000000000000000000000000000000000000000000000000000000000000000000000000000000000000000000000000000000000000001000000000000000000000000000000000000000000000000000000000000000000000000000000000000000000000000000000000000000000000000000000000000000000000200000000000000000000000000000000000000000000000008000000000000000000000000000000000000000000000000000100000000000000",
      "type": "0x2",
      "transactionHash": "0x75a6b9bfd0c8da2fc2496781d99d80c28abb48971378ab6ed4d0777d897bda8b",
      "transactionIndex": "0x1e",
      "blockHash": "0x38aa8a09674ddddafd16a65bd4fdfb46db6fcef109576110597fe34d60e2c242",
      "blockNumber": "0x96824c",
      "gasUsed": "0x3db40",
      "effectiveGasPrice": "0x1456797ac",
      "from": "0xa28de7725aebe0a8f727beccdcd80c12ae12d984",
      "to": "0xc699a3c09436952a75c44e20bab7d10246d19454",
      "contractAddress": null
    }
  ],
  "libraries": [],
  "pending": [],
  "returns": {},
  "timestamp": 1766025829600,
  "chain": 11155111,
  "commit": null
}