{
  "transactions": [
    {
      "hash": "0x7bb85896bedc867a5fa8f0ce5932bd9225bab5e39e6660ac6dcf3ae909580321",
      "transactionType": "CALL",
      "contractName": null,
      "contractAddress": "0x1f63fa55871b42b5a07f4a116672cc31297c0d16",
      "function": "applyChainUpdates((uint64,bool,bytes,bytes,(bool,uint128,uint128),(bool,uint128,uint128))[])",
      "arguments": [
        "[(6898391096552792247, true, 0x000000000000000000000000cc05dc73bdae5d9a4945928b9a1880cbe84233fa, 0x0000000000000000000000009e9568387a6b0e4ed9647ae72aefc272f4ed3f0e, (false, 0, 0), (false, 0, 0))]"
      ],
      "transaction": {
        "from": "0xa28de7725aebe0a8f727beccdcd80c12ae12d984",
        "to": "0x1f63fa55871b42b5a07f4a116672cc31297c0d16",
        "gas": "0x553a3",
        "value": "0x0",
        "input": "0xdb6327dc0000000000000000000000000000000000000000000000000000000000000020000000000000000000000000000000000000000000000000000000000000000100000000000000000000000000000000000000000000000000000000000000200000000000000000000000000000000000000000000000005fbc02272fbf20b70000000000000000000000000000000000000000000000000000000000000001000000000000000000000000000000000000000000000000000000000000014000000000000000000000000000000000000000000000000000000000000001800000000000000000000000000000000000000000000000000000000000000000000000000000000000000000000000000000000000000000000000000000000000000000000000000000000000000000000000000000000000000000000000000000000000000000000000000000000000000000000000000000000000000000000000000000000000000000000000000000000000000000000000000000000000000000000000000000000000000000000000000000000000000000000000000000000000000000000000000000000000000000000000000000000000000020000000000000000000000000cc05dc73bdae5d9a4945928b9a1880cbe84233fa00000000000000000000000000000000000000000000000000000000000000200000000000000000000000009e9568387a6b0e4ed9647ae72aefc272f4ed3f0e",
        "nonce": "0x79",
        "chainId": "0xaa36a7"
      },
      "additionalContracts": [],
      "isFixedGasLimit": false
    }
  ],
  "receipts": [
    {
      "status": "0x1",
      "cumulativeGasUsed": "0x108223c",
      "logs": [
        {
          "address": "0x1f63fa55871b42b5a07f4a116672cc31297c0d16",
          "topics": [
            "0x8d340f17e19058004c20453540862a9c62778504476f6756755cb33bcd6c38c2"
          ],
          "data": "0x0000000000000000000000000000000000000000000000005fbc02272fbf20b7000000000000000000000000000000000000000000000000000000000000010000000000000000000000000000000000000000000000000000000000000000000000000000000000000000000000000000000000000000000000000000000000000000000000000000000000000000000000000000000000000000000000000000000000000000000000000000000000000000000000000000000000000000000000000000000000000000000000000000000000000000000000000000000000000000000000000000000000000000000000000000000000000000000000000000000000000000000000000000000000000000000000000000000000000000200000000000000000000000009e9568387a6b0e4ed9647ae72aefc272f4ed3f0e",
          "blockHash": "0x52eaf247cf895b2112447fdbb4b8db692799b98e08ca99924b040249a79e2fbb",
          "blockNumber": "0x968175",
          "blockTimestamp": "0x69435fc0",
          "transactionHash": "0x7bb85896bedc867a5fa8f0ce5932bd9225bab5e39e6660ac6dcf3ae909580321",
          "transactionIndex": "0x45",
          "logIndex": "0x235",
          "removed": false
        }
      ],
      "logsBloom": "0x00008000000000400000000000000000000000000000000000000000000000000000000000000000000000000000000000000000000000000004000000000000000000000000000000000000000000000000000000000000000000000000000000000000000000000000000000000000000000000000000000000000000000000000000000000000000000000000000000000000000000000000000000000000000000000000000080000000000000000000000000000000000000000000000000000000000000000000000000000000000000000000000000000000000000000000000000000000000000002000000000000000000000000100000000000000",
      "type": "0x2",
      "transactionHash": "0x7bb85896bedc867a5fa8f0ce5932bd9225bab5e39e6660ac6dcf3ae909580321",
      "transactionIndex": "0x45",
      "blockHash": "0x52eaf247cf895b2112447fdbb4b8db692799b98e08ca99924b040249a79e2fbb",
      "blockNumber": "0x968175",
      "gasUsed": "0x3db40",
      "effectiveGasPrice": "0x2aa3cac3",
      "from": "0xa28de7725aebe0a8f727beccdcd80c12ae12d984",
      "to": "0x1f63fa55871b42b5a07f4a116672cc31297c0d16",
      "contractAddress": null
    }
  ],
  "libraries": [],
  "pending": [],
  "returns": {},
  "timestamp": 1766023105380,
  "chain": 11155111,
  "commit": null
}