{
  "transactions": [
    {
      "hash": "0x173f844363d9dd0dd6db3df7f3c53c49ba25ee53837e485e884e98e8cd7d86b9",
      "transactionType": "CALL",
      "contractName": null,
      "contractAddress": "0xfa7f115c36014383703312b94cb2d49569a13192",
      "function": "applyChainUpdates((uint64,bool,bytes,bytes,(bool,uint128,uint128),(bool,uint128,uint128))[])",
      "arguments": [
        "[(6898391096552792247, true, 0x0000000000000000000000008fdf52924524819f407d7ef760a87f23cd5f702a, 0x000000000000000000000000bd395c5c8f214d89a3b21797aa80cc02e15f73fd, (false, 0, 0), (false, 0, 0))]"
      ],
      "transaction": {
        "from": "0xa28de7725aebe0a8f727beccdcd80c12ae12d984",
        "to": "0xfa7f115c36014383703312b94cb2d49569a13192",
        "gas": "0x553a3",
        "value": "0x0",
        "input": "0xdb6327dc0000000000000000000000000000000000000000000000000000000000000020000000000000000000000000000000000000000000000000000000000000000100000000000000000000000000000000000000000000000000000000000000200000000000000000000000000000000000000000000000005fbc02272fbf20b700000000000000000000000000000000000000000000000000000000000000010000000000000000000000000000000000000000000000000000000000000140000000000000000000000000000000000000000000000000000000000000018000000000000000000000000000000000000000000000000000000000000000000000000000000000000000000000000000000000000000000000000000000000000000000000000000000000000000000000000000000000000000000000000000000000000000000000000000000000000000000000000000000000000000000000000000000000000000000000000000000000000000000000000000000000000000000000000000000000000000000000000000000000000000000000000000000000000000000000000000000000000000000000000000000000000000200000000000000000000000008fdf52924524819f407d7ef760a87f23cd5f702a0000000000000000000000000000000000000000000000000000000000000020000000000000000000000000bd395c5c8f214d89a3b21797aa80cc02e15f73fd",
        "nonce": "0x6c",
        "chainId": "0xaa36a7"
      },
      "additionalContracts": [],
      "isFixedGasLimit": false
    }
  ],
  "receipts": [
    {
      "status": "0x1",
      "cumulativeGasUsed": "0x1acab1d",
      "logs": [
        {
          "address": "0xfa7f115c36014383703312b94cb2d49569a13192",
          "topics": [
            "0x8d340f17e19058004c20453540862a9c62778504476f6756755cb33bcd6c38c2"
          ],
          "data": "0x0000000000000000000000000000000000000000000000005fbc02272fbf20b700000000000000000000000000000000000000000000000000000000000001000000000000000000000000000000000000000000000000000000000000000000000000000000000000000000000000000000000000000000000000000000000000000000000000000000000000000000000000000000000000000000000000000000000000000000000000000000000000000000000000000000000000000000000000000000000000000000000000000000000000000000000000000000000000000000000000000000000000000000000000000000000000000000000000000000000000000000000000000000000000000000000000000000000000000020000000000000000000000000bd395c5c8f214d89a3b21797aa80cc02e15f73fd",
          "blockHash": "0x4f45e2712335fc9eb87a4b81eedcdf2d291070e3ba54d40b9a013e03fb204eda",
          "blockNumber": "0x96808b",
          "blockTimestamp": "0x69435408",
          "transactionHash": "0x173f844363d9dd0dd6db3df7f3c53c49ba25ee53837e485e884e98e8cd7d86b9",
          "transactionIndex": "0x5d",
          "logIndex": "0x407",
          "removed": false
        }
      ],
      "logsBloom": "0x00000000000000400000000000000000000000000000000000000000000000000000000000000000000000000000000000000000000000000004000000000000000000000000000000000000000000000000000000001000000000000000000000000000000000000000000000000000000000000000000000000000000000400000000000000000000000000000000000000000000000000000000000000000000000000000000000000000000000000000000000000000000000000000000000000000000000000000000000000000000000000000000000000000000040000000000000000000000000000000000000000000000000000100000000000000",
      "type": "0x2",
      "transactionHash": "0x173f844363d9dd0dd6db3df7f3c53c49ba25ee53837e485e884e98e8cd7d86b9",
      "transactionIndex": "0x5d",
      "blockHash": "0x4f45e2712335fc9eb87a4b81eedcdf2d291070e3ba54d40b9a013e03fb204eda",
      "blockNumber": "0x96808b",
      "gasUsed": "0x3db40",
      "effectiveGasPrice": "0xbf74931f",
      "from": "0xa28de7725aebe0a8f727beccdcd80c12ae12d984",
      "to": "0xfa7f115c36014383703312b94cb2d49569a13192",
      "contractAddress": null
    }
  ],
  "libraries": [],
  "pending": [],
  "returns": {},
  "timestamp": 1766020105445,
  "chain": 11155111,
  "commit": null
}