{
  "transactions": [
    {
      "hash": "0xf7751020332541d2e663a59bff1c01c8256fd8fb151b6dc7a207e87cd70c1a79",
      "transactionType": "CALL",
      "contractName": null,
      "contractAddress": "0x779877a7b0d9e8603169ddbd7836e478b4624789",
      "function": "approve(address,uint256)",
      "arguments": [
        "0x0BF3dE8c5D3e8A2B34D2BEeB17ABfCeBaf363A59",
        "20521302314521886"
      ],
      "transaction": {
        "from": "0xa28de7725aebe0a8f727beccdcd80c12ae12d984",
        "to": "0x779877a7b0d9e8603169ddbd7836e478b4624789",
        "gas": "0x9d2e",
        "value": "0x0",
        "input": "0x095ea7b30000000000000000000000000bf3de8c5d3e8a2b34d2beeb17abfcebaf363a590000000000000000000000000000000000000000000000000048e80406c9151e",
        "nonce": "0x6e",
        "chainId": "0xaa36a7"
      },
      "additionalContracts": [],
      "isFixedGasLimit": false
    },
    {
      "hash": "0x04e9c5f86b259f3c6f4527a409035283a01c155f1a49da7dd683ee1574584ff7",
      "transactionType": "CALL",
      "contractName": null,
      "contractAddress": "0x46c17610a52fe8bbeed115b47945742da7be15c2",
      "function": "approve(address,uint256)",
      "arguments": [
        "0x0BF3dE8c5D3e8A2B34D2BEeB17ABfCeBaf363A59",
        "100000"
      ],
      "transaction": {
        "from": "0xa28de7725aebe0a8f727beccdcd80c12ae12d984",
        "to": "0x46c17610a52fe8bbeed115b47945742da7be15c2",
        "gas": "0x11554",
        "value": "0x0",
        "input": "0x095ea7b30000000000000000000000000bf3de8c5d3e8a2b34d2beeb17abfcebaf363a5900000000000000000000000000000000000000000000000000000000000186a0",
        "nonce": "0x6f",
        "chainId": "0xaa36a7"
      },
      "additionalContracts": [],
      "isFixedGasLimit": false
    },
    {
      "hash": "0x9ca102ec4acff1b3adfab5093a326ae3602bd64a003ba0ae1f1cb1f175c58096",
      "transactionType": "CALL",
      "contractName": null,
      "contractAddress": "0x0bf3de8c5d3e8a2b34d2beeb17abfcebaf363a59",
      "function": "ccipSend(uint64,(bytes,bytes,(address,uint256)[],address,bytes))",
      "arguments": [
        "6898391096552792247",
        "(0x000000000000000000000000a28de7725aebe0a8f727beccdcd80c12ae12d984, 0x, [(0x46c17610a52fe8BbEeD115B47945742DA7Be15C2, 100000)], 0x779877A7B0D9E8603169DdbD7836e478b4624789, 0x97a657c90000000000000000000000000000000000000000000000000000000000000000)"
      ],
      "transaction": {
        "from": "0xa28de7725aebe0a8f727beccdcd80c12ae12d984",
        "to": "0x0bf3de8c5d3e8a2b34d2beeb17abfcebaf363a59",
        "gas": "0x6ea3a",
        "value": "0x0",
        "input": "0x96f4e9f90000000000000000000000000000000000000000000000005fbc02272fbf20b7000000000000000000000000000000000000000000000000000000000000004000000000000000000000000000000000000000000000000000000000000000a000000000000000000000000000000000000000000000000000000000000000e00000000000000000000000000000000000000000000000000000000000000100000000000000000000000000779877a7b0d9e8603169ddbd7836e478b462478900000000000000000000000000000000000000000000000000000000000001600000000000000000000000000000000000000000000000000000000000000020000000000000000000000000a28de7725aebe0a8f727beccdcd80c12ae12d9840000000000000000000000000000000000000000000000000000000000000000000000000000000000000000000000000000000000000000000000000000000100000000000000000000000046c17610a52fe8bbeed115b47945742da7be15c200000000000000000000000000000000000000000000000000000000000186a0000000000000000000000000000000000000000000000000000000000000002497a657c9000000000000000000000000000000000000000000000000000000000000000000000000000000000000000000000000000000000000000000000000",
        "nonce": "0x70",
        "chainId": "0xaa36a7"
      },
      "additionalContracts": [],
      "isFixedGasLimit": false
    }
  ],
  "receipts": [
    {
      "status": "0x1",
      "cumulativeGasUsed": "0x11cdc58",
      "logs": [
        {
          "address": "0x779877a7b0d9e8603169ddbd7836e478b4624789",
          "topics": [
            "0x8c5be1e5ebec7d5bd14f71427d1e84f3dd0314c0f7b2291e5b200ac8c7c3b925",
            "0x000000000000000000000000a28de7725aebe0a8f727beccdcd80c12ae12d984",
            "0x0000000000000000000000000bf3de8c5d3e8a2b34d2beeb17abfcebaf363a59"
          ],
          "data": "0x0000000000000000000000000000000000000000000000000048e80406c9151e",
          "blockHash": "0xe04869ad1422cdc0ff7968e4299d7025713a208514dec7cb84c110767257ab5f",
          "blockNumber": "0x96809c",
          "blockTimestamp": "0x694354ec",
          "transactionHash": "0xf7751020332541d2e663a59bff1c01c8256fd8fb151b6dc7a207e87cd70c1a79",
          "transactionIndex": "0x3b",
          "logIndex": "0x277",
          "removed": false
        }
      ],
      "logsBloom": "0x00008004000040000000000000000000000000000000000000000000000000000000000000000000000000000000000000000000000000000000000000200000000000000000000000000000000000000000000000000000000000000000000000000000000100000000000000000000000000000000000000000000000000000000000000000000000000000000800000000000000000000000000000000000020000000004080000000000000000000000000000000000000000000000000000000000000000000000000000000000000000000000000100000000000000000010000000000000000000000000000000000000000000000000000000200000",
      "type": "0x2",
      "transactionHash": "0xf7751020332541d2e663a59bff1c01c8256fd8fb151b6dc7a207e87cd70c1a79",
      "transactionIndex": "0x3b",
      "blockHash": "0xe04869ad1422cdc0ff7968e4299d7025713a208514dec7cb84c110767257ab5f",
      "blockNumber": "0x96809c",
      "gasUsed": "0x71cd",
      "effectiveGasPrice": "0x9ccf4d98",
      "from": "0xa28de7725aebe0a8f727beccdcd80c12ae12d984",
      "to": "0x779877a7b0d9e8603169ddbd7836e478b4624789",
      "contractAddress": null
    },
    {
      "status": "0x1",
      "cumulativeGasUsed": "0x11d99f9",
      "logs": [
        {
          "address": "0x46c17610a52fe8bbeed115b47945742da7be15c2",
          "topics": [
            "0x8c5be1e5ebec7d5bd14f71427d1e84f3dd0314c0f7b2291e5b200ac8c7c3b925",
            "0x000000000000000000000000a28de7725aebe0a8f727beccdcd80c12ae12d984",
            "0x0000000000000000000000000bf3de8c5d3e8a2b34d2beeb17abfcebaf363a59"
          ],
          "data": "0x00000000000000000000000000000000000000000000000000000000000186a0",
          "blockHash": "0xe04869ad1422cdc0ff7968e4299d7025713a208514dec7cb84c110767257ab5f",
          "blockNumber": "0x96809c",
          "blockTimestamp": "0x694354ec",
          "transactionHash": "0x04e9c5f86b259f3c6f4527a409035283a01c155f1a49da7dd683ee1574584ff7",
          "transactionIndex": "0x3c",
          "logIndex": "0x278",
          "removed": false
        }
      ],
      "logsBloom": "0x00008000000040000000000000000000000000000000000000000000000000000000000000000000000000000000000000000000000000000000000000200000000000000000000000000000040000000000000001000000000000000000000000000000000100000000000000000000000000000000000000000000000000000000000000000000000000000000000000000000000000000000000000000000020000000004080000000000000000000000000000000000000080000000000000000000000000000000000000000000000000000000000000000000000000000010000000000000000000000000000000000000000000000000000000200000",
      "type": "0x2",
      "transactionHash": "0x04e9c5f86b259f3c6f4527a409035283a01c155f1a49da7dd683ee1574584ff7",
      "transactionIndex": "0x3c",
      "blockHash": "0xe04869ad1422cdc0ff7968e4299d7025713a208514dec7cb84c110767257ab5f",
      "blockNumber": "0x96809c",
      "gasUsed": "0xbda1",
      "effectiveGasPrice": "0x9ccf4d98",
      "from": "0xa28de7725aebe0a8f727beccdcd80c12ae12d984",
      "to": "0x46c17610a52fe8bbeed115b47945742da7be15c2",
      "contractAddress": null
    },
    {
      "status": "0x1",
      "cumulativeGasUsed": "0x1225463",
      "logs": [
        {
          "address": "0x779877a7b0d9e8603169ddbd7836e478b4624789",
          "topics": [
            "0xddf252ad1be2c89b69c2b068fc378daa952ba7f163c4a11628f55a4df523b3ef",
            "0x000000000000000000000000a28de7725aebe0a8f727beccdcd80c12ae12d984",
            "0x000000000000000000000000a2865e4f36760f5fa5c8f958336120f2df0d974b"
          ],
          "data": "0x0000000000000000000000000000000000000000000000000048e80406c9151e",
          "blockHash": "0xe04869ad1422cdc0ff7968e4299d7025713a208514dec7cb84c110767257ab5f",
          "blockNumber": "0x96809c",
          "blockTimestamp": "0x694354ec",
          "transactionHash": "0x9ca102ec4acff1b3adfab5093a326ae3602bd64a003ba0ae1f1cb1f175c58096",
          "transactionIndex": "0x3d",
          "logIndex": "0x279",
          "removed": false
        },
        {
          "address": "0x779877a7b0d9e8603169ddbd7836e478b4624789",
          "topics": [
            "0x8c5be1e5ebec7d5bd14f71427d1e84f3dd0314c0f7b2291e5b200ac8c7c3b925",
            "0x000000000000000000000000a28de7725aebe0a8f727beccdcd80c12ae12d984",
            "0x0000000000000000000000000bf3de8c5d3e8a2b34d2beeb17abfcebaf363a59"
          ],
          "data": "0x0000000000000000000000000000000000000000000000000000000000000000",
          "blockHash": "0xe04869ad1422cdc0ff7968e4299d7025713a208514dec7cb84c110767257ab5f",
          "blockNumber": "0x96809c",
          "blockTimestamp": "0x694354ec",
          "transactionHash": "0x9ca102ec4acff1b3adfab5093a326ae3602bd64a003ba0ae1f1cb1f175c58096",
          "transactionIndex": "0x3d",
          "logIndex": "0x27a",
          "removed": false
        },
        {
          "address": "0x46c17610a52fe8bbeed115b47945742da7be15c2",
          "topics": [
            "0xddf252ad1be2c89b69c2b068fc378daa952ba7f163c4a11628f55a4df523b3ef",
            "0x0000000000000000000000000000000000000000000000000000000000000000",
            "0x000000000000000000000000a28de7725aebe0a8f727beccdcd80c12ae12d984"
          ],
          "data": "0x0000000000000000000000000000000000000000000000000000000000000001",
          "blockHash": "0xe04869ad1422cdc0ff7968e4299d7025713a208514dec7cb84c110767257ab5f",
          "blockNumber": "0x96809c",
          "blockTimestamp": "0x694354ec",
          "transactionHash": "0x9ca102ec4acff1b3adfab5093a326ae3602bd64a003ba0ae1f1cb1f175c58096",
          "transactionIndex": "0x3d",
          "logIndex": "0x27b",
          "removed": false
        },
        {
          "address": "0x46c17610a52fe8bbeed115b47945742da7be15c2",
          "topics": [
            "0xddf252ad1be2c89b69c2b068fc378daa952ba7f163c4a11628f55a4df523b3ef",
            "0x0000000000000000000000000000000000000000000000000000000000000000",
            "0x000000000000000000000000fa7f115c36014383703312b94cb2d49569a13192"
          ],
          "data": "0x0000000000000000000000000000000000000000000000000000000000000000",
          "blockHash": "0xe04869ad1422cdc0ff7968e4299d7025713a208514dec7cb84c110767257ab5f",
          "blockNumber": "0x96809c",
          "blockTimestamp": "0x694354ec",
          "transactionHash": "0x9ca102ec4acff1b3adfab5093a326ae3602bd64a003ba0ae1f1cb1f175c58096",
          "transactionIndex": "0x3d",
          "logIndex": "0x27c",
          "removed": false
        },
        {
          "address": "0x46c17610a52fe8bbeed115b47945742da7be15c2",
          "topics": [
            "0xddf252ad1be2c89b69c2b068fc378daa952ba7f163c4a11628f55a4df523b3ef",
            "0x000000000000000000000000a28de7725aebe0a8f727beccdcd80c12ae12d984",
            "0x000000000000000000000000fa7f115c36014383703312b94cb2d49569a13192"
          ],
          "data": "0x00000000000000000000000000000000000000000000000000000000000186a0",
          "blockHash": "0xe04869ad1422cdc0ff7968e4299d7025713a208514dec7cb84c110767257ab5f",
          "blockNumber": "0x96809c",
          "blockTimestamp": "0x694354ec",
          "transactionHash": "0x9ca102ec4acff1b3adfab5093a326ae3602bd64a003ba0ae1f1cb1f175c58096",
          "transactionIndex": "0x3d",
          "logIndex": "0x27d",
          "removed": false
        },
        {
          "address": "0x46c17610a52fe8bbeed115b47945742da7be15c2",
          "topics": [
            "0xddf252ad1be2c89b69c2b068fc378daa952ba7f163c4a11628f55a4df523b3ef",
            "0x0000000000000000000000000000000000000000000000000000000000000000",
            "0x000000000000000000000000fa7f115c36014383703312b94cb2d49569a13192"
          ],
          "data": "0x0000000000000000000000000000000000000000000000000000000000000000",
          "blockHash": "0xe04869ad1422cdc0ff7968e4299d7025713a208514dec7cb84c110767257ab5f",
          "blockNumber": "0x96809c",
          "blockTimestamp": "0x694354ec",
          "transactionHash": "0x9ca102ec4acff1b3adfab5093a326ae3602bd64a003ba0ae1f1cb1f175c58096",
          "transactionIndex": "0x3d",
          "logIndex": "0x27e",
          "removed": false
        },
        {
          "address": "0x46c17610a52fe8bbeed115b47945742da7be15c2",
          "topics": [
            "0xddf252ad1be2c89b69c2b068fc378daa952ba7f163c4a11628f55a4df523b3ef",
            "0x000000000000000000000000fa7f115c36014383703312b94cb2d49569a13192",
            "0x0000000000000000000000000000000000000000000000000000000000000000"
          ],
          "data": "0x00000000000000000000000000000000000000000000000000000000000186a0",
          "blockHash": "0xe04869ad1422cdc0ff7968e4299d7025713a208514dec7cb84c110767257ab5f",
          "blockNumber": "0x96809c",
          "blockTimestamp": "0x694354ec",
          "transactionHash": "0x9ca102ec4acff1b3adfab5093a326ae3602bd64a003ba0ae1f1cb1f175c58096",
          "transactionIndex": "0x3d",
          "logIndex": "0x27f",
          "removed": false
        },
        {
          "address": "0xa2865e4f36760f5fa5c8f958336120f2df0d974b",
          "topics": [
            "0xd0c3c799bf9e2639de44391e7f524d229b2b55f5b1ea94b2bf7da42f7243dddd"
          ],
          "data": "0x0000000000000000000000000000000000000000000000000000000000000020000000000000000000000000000000000000000000000000de41ba4fc9d91ad9000000000000000000000000a28de7725aebe0a8f727beccdcd80c12ae12d984000000000000000000000000a28de7725aebe0a8f727beccdcd80c12ae12d9840000000000000000000000000000000000000000000000000000000000000331000000000000000000000000000000000000000000000000000000000000000000000000000000000000000000000000000000000000000000000000000000000000000000000000000000000000000000000000000000000000000000000001000000000000000000000000779877a7b0d9e8603169ddbd7836e478b46247890000000000000000000000000000000000000000000000000048e80406c9151e00000000000000000000000000000000000000000000000000000000000001a000000000000000000000000000000000000000000000000000000000000001c00000000000000000000000000000000000000000000000000000000000000220de51d0432657a97cdcb28805df660657571797c7c0993453623cfc362a8979660000000000000000000000000000000000000000000000000000000000000000000000000000000000000000000000000000000000000000000000000000000100000000000000000000000046c17610a52fe8bbeed115b47945742da7be15c200000000000000000000000000000000000000000000000000000000000186a00000000000000000000000000000000000000000000000000000000000000001000000000000000000000000000000000000000000000000000000000000002000000000000000000000000000000000000000000000000000000000000001600000000000000000000000000000000000000000000000000000000000000020000000000000000000000000000000000000000000000000000000000000008000000000000000000000000000000000000000000000000000000000000000c000000000000000000000000000000000000000000000000000000000000001000000000000000000000000000000000000000000000000000000000000015f900000000000000000000000000000000000000000000000000000000000000020000000000000000000000000fa7f115c36014383703312b94cb2d49569a131920000000000000000000000000000000000000000000000000000000000000020000000000000000000000000bd395c5c8f214d89a3b21797aa80cc02e15f73fd00000000000000000000000000000000000000000000000000000000000000200000000000000000000000000000000000000000000000000000000ba43b7400",
          "blockHash": "0xe04869ad1422cdc0ff7968e4299d7025713a208514dec7cb84c110767257ab5f",
          "blockNumber": "0x96809c",
          "blockTimestamp": "0x694354ec",
          "transactionHash": "0x9ca102ec4acff1b3adfab5093a326ae3602bd64a003ba0ae1f1cb1f175c58096",
          "transactionIndex": "0x3d",
          "logIndex": "0x280",
          "removed": false
        }
      ],
      "logsBloom": "0x00008004000040000000000000000000000000000000000000000000000000000000000000000000000000001000000000000800000000000000000000200000000000000000000000000008040000000000000001000000000000000000000010000000020100000000000000000800000000000000300000000010000000000000000000000000000000000000800000000000000000000000000000000000020000000004080400000000000000000000000000000000000180010000000000000002000000000000000000000000000000000100000100000000000020000010800000000000000000000000000004000800000000000000000000200000",
      "type": "0x2",
      "transactionHash": "0x9ca102ec4acff1b3adfab5093a326ae3602bd64a003ba0ae1f1cb1f175c58096",
      "transactionIndex": "0x3d",
      "blockHash": "0xe04869ad1422cdc0ff7968e4299d7025713a208514dec7cb84c110767257ab5f",
      "blockNumber": "0x96809c",
      "gasUsed": "0x4ba6a",
      "effectiveGasPrice": "0x9ccf4d98",
      "from": "0xa28de7725aebe0a8f727beccdcd80c12ae12d984",
      "to": "0x0bf3de8c5d3e8a2b34d2beeb17abfcebaf363a59",
      "contractAddress": null
    }
  ],
  "libraries": [],
  "pending": [],
  "returns": {},
  "timestamp": 1766020335079,
  "chain": 11155111,
  "commit": null
}