{
  "transactions": [
    {
      "hash": "0x4f1ca5f56c23a39b5f935bfd6b708bf7d6bda83f5a1996513c3cba98aa1422ad",
      "transactionType": "CALL",
      "contractName": null,
      "contractAddress": "0x779877a7b0d9e8603169ddbd7836e478b4624789",
      "function": "approve(address,uint256)",
      "arguments": [
        "0x0BF3dE8c5D3e8A2B34D2BEeB17ABfCeBaf363A59",
        "20521302314521886"
      ],
      "transaction": {
        "from": "0xa28de7725aebe0a8f727beccdcd80c12ae12d984",
        "to": "0x779877a7b0d9e8603169ddbd7836e478b4624789",
        "gas": "0x1081f",
        "value": "0x0",
        "input": "0x095ea7b30000000000000000000000000bf3de8c5d3e8a2b34d2beeb17abfcebaf363a590000000000000000000000000000000000000000000000000048e80406c9151e",
        "nonce": "0x7b",
        "chainId": "0xaa36a7"
      },
      "additionalContracts": [],
      "isFixedGasLimit": false
    },
    {
      "hash": "0x06b2f479532c042869f488bb6782929135b18beda3c3d5e6e69aa3f9fad373bd",
      "transactionType": "CALL",
      "contractName": null,
      "contractAddress": "0x02452e2a48b293e3e4602127c65b73c81b7722c9",
      "function": "approve(address,uint256)",
      "arguments": [
        "0x0BF3dE8c5D3e8A2B34D2BEeB17ABfCeBaf363A59",
        "100000"
      ],
      "transaction": {
        "from": "0xa28de7725aebe0a8f727beccdcd80c12ae12d984",
        "to": "0x02452e2a48b293e3e4602127c65b73c81b7722c9",
        "gas": "0x11554",
        "value": "0x0",
        "input": "0x095ea7b30000000000000000000000000bf3de8c5d3e8a2b34d2beeb17abfcebaf363a5900000000000000000000000000000000000000000000000000000000000186a0",
        "nonce": "0x7c",
        "chainId": "0xaa36a7"
      },
      "additionalContracts": [],
      "isFixedGasLimit": false
    },
    {
      "hash": "0xc3093fe4f8206d06b15531514d3c5994310c2943fbd2878abc5b50ba49ce7ea4",
      "transactionType": "CALL",
      "contractName": null,
      "contractAddress": "0x0bf3de8c5d3e8a2b34d2beeb17abfcebaf363a59",
      "function": "ccipSend(uint64,(bytes,bytes,(address,uint256)[],address,bytes))",
      "arguments": [
        "6898391096552792247",
        "(0x000000000000000000000000a28de7725aebe0a8f727beccdcd80c12ae12d984, 0x, [(0x02452E2a48B293e3e4602127c65B73C81B7722C9, 100000)], 0x779877A7B0D9E8603169DdbD7836e478b4624789, 0x97a657c90000000000000000000000000000000000000000000000000000000000000000)"
      ],
      "transaction": {
        "from": "0xa28de7725aebe0a8f727beccdcd80c12ae12d984",
        "to": "0x0bf3de8c5d3e8a2b34d2beeb17abfcebaf363a59",
        "gas": "0x60b53",
        "value": "0x0",
        "input": "0x96f4e9f90000000000000000000000000000000000000000000000005fbc02272fbf20b7000000000000000000000000000000000000000000000000000000000000004000000000000000000000000000000000000000000000000000000000000000a000000000000000000000000000000000000000000000000000000000000000e00000000000000000000000000000000000000000000000000000000000000100000000000000000000000000779877a7b0d9e8603169ddbd7836e478b462478900000000000000000000000000000000000000000000000000000000000001600000000000000000000000000000000000000000000000000000000000000020000000000000000000000000a28de7725aebe0a8f727beccdcd80c12ae12d9840000000000000000000000000000000000000000000000000000000000000000000000000000000000000000000000000000000000000000000000000000000100000000000000000000000002452e2a48b293e3e4602127c65b73c81b7722c900000000000000000000000000000000000000000000000000000000000186a0000000000000000000000000000000000000000000000000000000000000002497a657c9000000000000000000000000000000000000000000000000000000000000000000000000000000000000000000000000000000000000000000000000",
        "nonce": "0x7d",
        "chainId": "0xaa36a7"
      },
      "additionalContracts": [],
      "isFixedGasLimit": false
    }
  ],
  "receipts": [
    {
      "status": "0x1",
      "cumulativeGasUsed": "0x1450114",
      "logs": [
        {
          "address": "0x779877a7b0d9e8603169ddbd7836e478b4624789",
          "topics": [
            "0x8c5be1e5ebec7d5bd14f71427d1e84f3dd0314c0f7b2291e5b200ac8c7c3b925",
            "0x000000000000000000000000a28de7725aebe0a8f727beccdcd80c12ae12d984",
            "0x0000000000000000000000000bf3de8c5d3e8a2b34d2beeb17abfcebaf363a59"
          ],
          "data": "0x0000000000000000000000000000000000000000000000000048e80406c9151e",
          "blockHash": "0x6f7d51bc9af2c6d2f21e4964acf728e51a0e43cea625faf780601c602581179f",
          "blockNumber": "0x968187",
          "blockTimestamp": "0x694360a4",
          "transactionHash": "0xc3093fe4f8206d06b15531514d3c5994310c2943fbd2878abc5b50ba49ce7ea4",
          "transactionIndex": "0x46",
          "logIndex": "0x328",
          "removed": false
        }
      ],
      "logsBloom": "0x00008004000040000000000000000000000000000000000000000000000000000000000000000000000000000000000000000000000000000000000000200000000000000000000000000000000000000000000000000000000000000000000000000000000100000000000000000000000000000000000000000000000000000000000000000000000000000000800000000000000000000000000000000000020000000004080000000000000000000000000000000000000000000000000000000000000000000000000000000000000000000000000100000000000000000010000000000000000000000000000000000000000000000000000000200000",
      "type": "0x2",
      "transactionHash": "0xc3093fe4f8206d06b15531514d3c5994310c2943fbd2878abc5b50ba49ce7ea4",
      "transactionIndex": "0x46",
      "blockHash": "0x6f7d51bc9af2c6d2f21e4964acf728e51a0e43cea625faf780601c602581179f",
      "blockNumber": "0x968187",
      "gasUsed": "0xb499",
      "effectiveGasPrice": "0x2a9edf06",
      "from": "0xa28de7725aebe0a8f727beccdcd80c12ae12d984",
      "to": "0x779877a7b0d9e8603169ddbd7836e478b4624789",
      "contractAddress": null
    },
    {
      "status": "0x1",
      "cumulativeGasUsed": "0x145beb5",
      "logs": [
        {
          "address": "0x02452e2a48b293e3e4602127c65b73c81b7722c9",
          "topics": [
            "0x8c5be1e5ebec7d5bd14f71427d1e84f3dd0314c0f7b2291e5b200ac8c7c3b925",
            "0x000000000000000000000000a28de7725aebe0a8f727beccdcd80c12ae12d984",
            "0x0000000000000000000000000bf3de8c5d3e8a2b34d2beeb17abfcebaf363a59"
          ],
          "data": "0x00000000000000000000000000000000000000000000000000000000000186a0",
          "blockHash": "0x6f7d51bc9af2c6d2f21e4964acf728e51a0e43cea625faf780601c602581179f",
          "blockNumber": "0x968187",
          "blockTimestamp": "0x694360a4",
          "transactionHash": "0x06b2f479532c042869f488bb6782929135b18beda3c3d5e6e69aa3f9fad373bd",
          "transactionIndex": "0x47",
          "logIndex": "0x329",
          "removed": false
        }
      ],
      "logsBloom": "0x00008000000040000000000000000000000000000000800000000200000000000000000000000000000000000000000000000000000000000000000000200000000000000000000000000000000000000000000000000000000000000000000000000000000100000000000000000000000000000000000000000000000000000000000000000000000000000000000000000000000000000000000002000000020000000004080000000000000000000000000000000000000000000000000000000000000000000000000000000000000000000000000000000000000000000010000000000000000000000000000000000000000000000000000000200000",
      "type": "0x2",
      "transactionHash": "0x06b2f479532c042869f488bb6782929135b18beda3c3d5e6e69aa3f9fad373bd",
      "transactionIndex": "0x47",
      "blockHash": "0x6f7d51bc9af2c6d2f21e4964acf728e51a0e43cea625faf780601c602581179f",
      "blockNumber": "0x968187",
      "gasUsed": "0xbda1",
      "effectiveGasPrice": "0x2a9edf06",
      "from": "0xa28de7725aebe0a8f727beccdcd80c12ae12d984",
      "to": "0x02452e2a48b293e3e4602127c65b73c81b7722c9",
      "contractAddress": null
    },
    {
      "status": "0x1",
      "cumulativeGasUsed": "0x14a1ef2",
      "logs": [
        {
          "address": "0x779877a7b0d9e8603169ddbd7836e478b4624789",
          "topics": [
            "0xddf252ad1be2c89b69c2b068fc378daa952ba7f163c4a11628f55a4df523b3ef",
            "0x000000000000000000000000a28de7725aebe0a8f727beccdcd80c12ae12d984",
            "0x000000000000000000000000a2865e4f36760f5fa5c8f958336120f2df0d974b"
          ],
          "data": "0x0000000000000000000000000000000000000000000000000048e80406c9151e",
          "blockHash": "0x6f7d51bc9af2c6d2f21e4964acf728e51a0e43cea625faf780601c602581179f",
          "blockNumber": "0x968187",
          "blockTimestamp": "0x694360a4",
          "transactionHash": "0x4f1ca5f56c23a39b5f935bfd6b708bf7d6bda83f5a1996513c3cba98aa1422ad",
          "transactionIndex": "0x48",
          "logIndex": "0x32a",
          "removed": false
        },
        {
          "address": "0x779877a7b0d9e8603169ddbd7836e478b4624789",
          "topics": [
            "0x8c5be1e5ebec7d5bd14f71427d1e84f3dd0314c0f7b2291e5b200ac8c7c3b925",
            "0x000000000000000000000000a28de7725aebe0a8f727beccdcd80c12ae12d984",
            "0x0000000000000000000000000bf3de8c5d3e8a2b34d2beeb17abfcebaf363a59"
          ],
          "data": "0x0000000000000000000000000000000000000000000000000000000000000000",
          "blockHash": "0x6f7d51bc9af2c6d2f21e4964acf728e51a0e43cea625faf780601c602581179f",
          "blockNumber": "0x968187",
          "blockTimestamp": "0x694360a4",
          "transactionHash": "0x4f1ca5f56c23a39b5f935bfd6b708bf7d6bda83f5a1996513c3cba98aa1422ad",
          "transactionIndex": "0x48",
          "logIndex": "0x32b",
          "removed": false
        },
        {
          "address": "0x02452e2a48b293e3e4602127c65b73c81b7722c9",
          "topics": [
            "0xddf252ad1be2c89b69c2b068fc378daa952ba7f163c4a11628f55a4df523b3ef",
            "0x0000000000000000000000000000000000000000000000000000000000000000",
            "0x000000000000000000000000a28de7725aebe0a8f727beccdcd80c12ae12d984"
          ],
          "data": "0x0000000000000000000000000000000000000000000000000000000000000001",
          "blockHash": "0x6f7d51bc9af2c6d2f21e4964acf728e51a0e43cea625faf780601c602581179f",
          "blockNumber": "0x968187",
          "blockTimestamp": "0x694360a4",
          "transactionHash": "0x4f1ca5f56c23a39b5f935bfd6b708bf7d6bda83f5a1996513c3cba98aa1422ad",
          "transactionIndex": "0x48",
          "logIndex": "0x32c",
          "removed": false
        },
        {
          "address": "0x02452e2a48b293e3e4602127c65b73c81b7722c9",
          "topics": [
            "0xddf252ad1be2c89b69c2b068fc378daa952ba7f163c4a11628f55a4df523b3ef",
            "0x0000000000000000000000000000000000000000000000000000000000000000",
            "0x0000000000000000000000001f63fa55871b42b5a07f4a116672cc31297c0d16"
          ],
          "data": "0x0000000000000000000000000000000000000000000000000000000000000000",
          "blockHash": "0x6f7d51bc9af2c6d2f21e4964acf728e51a0e43cea625faf780601c602581179f",
          "blockNumber": "0x968187",
          "blockTimestamp": "0x694360a4",
          "transactionHash": "0x4f1ca5f56c23a39b5f935bfd6b708bf7d6bda83f5a1996513c3cba98aa1422ad",
          "transactionIndex": "0x48",
          "logIndex": "0x32d",
          "removed": false
        },
        {
          "address": "0x02452e2a48b293e3e4602127c65b73c81b7722c9",
          "topics": [
            "0xddf252ad1be2c89b69c2b068fc378daa952ba7f163c4a11628f55a4df523b3ef",
            "0x000000000000000000000000a28de7725aebe0a8f727beccdcd80c12ae12d984",
            "0x0000000000000000000000001f63fa55871b42b5a07f4a116672cc31297c0d16"
          ],
          "data": "0x00000000000000000000000000000000000000000000000000000000000186a0",
          "blockHash": "0x6f7d51bc9af2c6d2f21e4964acf728e51a0e43cea625faf780601c602581179f",
          "blockNumber": "0x968187",
          "blockTimestamp": "0x694360a4",
          "transactionHash": "0x4f1ca5f56c23a39b5f935bfd6b708bf7d6bda83f5a1996513c3cba98aa1422ad",
          "transactionIndex": "0x48",
          "logIndex": "0x32e",
          "removed": false
        },
        {
          "address": "0x02452e2a48b293e3e4602127c65b73c81b7722c9",
          "topics": [
            "0xddf252ad1be2c89b69c2b068fc378daa952ba7f163c4a11628f55a4df523b3ef",
            "0x0000000000000000000000000000000000000000000000000000000000000000",
            "0x0000000000000000000000001f63fa55871b42b5a07f4a116672cc31297c0d16"
          ],
          "data": "0x0000000000000000000000000000000000000000000000000000000000000000",
          "blockHash": "0x6f7d51bc9af2c6d2f21e4964acf728e51a0e43cea625faf780601c602581179f",
          "blockNumber": "0x968187",
          "blockTimestamp": "0x694360a4",
          "transactionHash": "0x4f1ca5f56c23a39b5f935bfd6b708bf7d6bda83f5a1996513c3cba98aa1422ad",
          "transactionIndex": "0x48",
          "logIndex": "0x32f",
          "removed": false
        },
        {
          "address": "0x02452e2a48b293e3e4602127c65b73c81b7722c9",
          "topics": [
            "0xddf252ad1be2c89b69c2b068fc378daa952ba7f163c4a11628f55a4df523b3ef",
            "0x0000000000000000000000001f63fa55871b42b5a07f4a116672cc31297c0d16",
            "0x0000000000000000000000000000000000000000000000000000000000000000"
          ],
          "data": "0x00000000000000000000000000000000000000000000000000000000000186a0",
          "blockHash": "0x6f7d51bc9af2c6d2f21e4964acf728e51a0e43cea625faf780601c602581179f",
          "blockNumber": "0x968187",
          "blockTimestamp": "0x694360a4",
          "transactionHash": "0x4f1ca5f56c23a39b5f935bfd6b708bf7d6bda83f5a1996513c3cba98aa1422ad",
          "transactionIndex": "0x48",
          "logIndex": "0x330",
          "removed": false
        },
        {
          "address": "0xa2865e4f36760f5fa5c8f958336120f2df0d974b",
          "topics": [
            "0xd0c3c799bf9e2639de44391e7f524d229b2b55f5b1ea94b2bf7da42f7243dddd"
          ],
          "data": "0x0000000000000000000000000000000000000000000000000000000000000020000000000000000000000000000000000000000000000000de41ba4fc9d91ad9000000000000000000000000a28de7725aebe0a8f727beccdcd80c12ae12d984000000000000000000000000a28de7725aebe0a8f727beccdcd80c12ae12d9840000000000000000000000000000000000000000000000000000000000000332000000000000000000000000000000000000000000000000000000000000000000000000000000000000000000000000000000000000000000000000000000000000000000000000000000000000000000000000000000000000000000000002000000000000000000000000779877a7b0d9e8603169ddbd7836e478b46247890000000000000000000000000000000000000000000000000048e80406c9151e00000000000000000000000000000000000000000000000000000000000001a000000000000000000000000000000000000000000000000000000000000001c00000000000000000000000000000000000000000000000000000000000000220f1e98e609498c2e61c7fdf2d48ba829781c644a263d2d8a91050ab3249dbf5c10000000000000000000000000000000000000000000000000000000000000000000000000000000000000000000000000000000000000000000000000000000100000000000000000000000002452e2a48b293e3e4602127c65b73c81b7722c900000000000000000000000000000000000000000000000000000000000186a00000000000000000000000000000000000000000000000000000000000000001000000000000000000000000000000000000000000000000000000000000002000000000000000000000000000000000000000000000000000000000000001600000000000000000000000000000000000000000000000000000000000000020000000000000000000000000000000000000000000000000000000000000008000000000000000000000000000000000000000000000000000000000000000c000000000000000000000000000000000000000000000000000000000000001000000000000000000000000000000000000000000000000000000000000015f9000000000000000000000000000000000000000000000000000000000000000200000000000000000000000001f63fa55871b42b5a07f4a116672cc31297c0d1600000000000000000000000000000000000000000000000000000000000000200000000000000000000000009e9568387a6b0e4ed9647ae72aefc272f4ed3f0e00000000000000000000000000000000000000000000000000000000000000200000000000000000000000000000000000000000000000000000000ba43b7400",
          "blockHash": "0x6f7d51bc9af2c6d2f21e4964acf728e51a0e43cea625faf780601c602581179f",
          "blockNumber": "0x968187",
          "blockTimestamp": "0x694360a4",
          "transactionHash": "0x4f1ca5f56c23a39b5f935bfd6b708bf7d6bda83f5a1996513c3cba98aa1422ad",
          "transactionIndex": "0x48",
          "logIndex": "0x331",
          "removed": false
        }
      ],
      "logsBloom": "0x00008004000040000000000000000000000000000000800000000200000000000000000000000001000000000000000000000000000000000000000000200000000000000000000000000008000000000000000000000000000000000000000010000000020100000000000000000a00000000000000100000000010000000000000000000000000000000000000800000000000000000000000000002000000020000000004080400000000000000000000000000000000000100010000000000000002000000000000000000000000000000000100000100000000400020000010800000000000000000000000000004000800000000000000000000200000",
      "type": "0x2",
      "transactionHash": "0x4f1ca5f56c23a39b5f935bfd6b708bf7d6bda83f5a1996513c3cba98aa1422ad",
      "transactionIndex": "0x48",
      "blockHash": "0x6f7d51bc9af2c6d2f21e4964acf728e51a0e43cea625faf780601c602581179f",
      "blockNumber": "0x968187",
      "gasUsed": "0x4603d",
      "effectiveGasPrice": "0x2a9edf06",
      "from": "0xa28de7725aebe0a8f727beccdcd80c12ae12d984",
      "to": "0x0bf3de8c5d3e8a2b34d2beeb17abfcebaf363a59",
      "contractAddress": null
    }
  ],
  "libraries": [],
  "pending": [],
  "returns": {},
  "timestamp": 1766023333953,
  "chain": 11155111,
  "commit": null
}