{
  "transactions": [
    {
      "hash": "0xaf2198eb6c287239137eb1c8af9b07a416563c36ca7dc30e9f2cba4efd32bc5f",
      "transactionType": "CALL",
      "contractName": null,
      "contractAddress": "0x779877a7b0d9e8603169ddbd7836e478b4624789",
      "function": "approve(address,uint256)",
      "arguments": [
        "0x0BF3dE8c5D3e8A2B34D2BEeB17ABfCeBaf363A59",
        "21095399721253054"
      ],
      "transaction": {
        "from": "0xa28de7725aebe0a8f727beccdcd80c12ae12d984",
        "to": "0x779877a7b0d9e8603169ddbd7836e478b4624789",
        "gas": "0x1081f",
        "value": "0x0",
        "input": "0x095ea7b30000000000000000000000000bf3de8c5d3e8a2b34d2beeb17abfcebaf363a59000000000000000000000000000000000000000000000000004af2277ec7b8be",
        "nonce": "0x88",
        "chainId": "0xaa36a7"
      },
      "additionalContracts": [],
      "isFixedGasLimit": false
    },
    {
      "hash": "0x52e04db161d7118292d60a8ca94ca221ec8582beaafd8aa9a3c843257f3eba1d",
      "transactionType": "CALL",
      "contractName": null,
      "contractAddress": "0xeaf907c962df13c2e5e4b00e3ce5f748fad7dafc",
      "function": "approve(address,uint256)",
      "arguments": [
        "0x0BF3dE8c5D3e8A2B34D2BEeB17ABfCeBaf363A59",
        "100000"
      ],
      "transaction": {
        "from": "0xa28de7725aebe0a8f727beccdcd80c12ae12d984",
        "to": "0xeaf907c962df13c2e5e4b00e3ce5f748fad7dafc",
        "gas": "0x11554",
        "value": "0x0",
        "input": "0x095ea7b30000000000000000000000000bf3de8c5d3e8a2b34d2beeb17abfcebaf363a5900000000000000000000000000000000000000000000000000000000000186a0",
        "nonce": "0x89",
        "chainId": "0xaa36a7"
      },
      "additionalContracts": [],
      "isFixedGasLimit": false
    },
    {
      "hash": "0x3c2bc09ca69fa187a623bf621b0f7316c81c8f746bfeb0f36f1b374d9bef0e95",
      "transactionType": "CALL",
      "contractName": null,
      "contractAddress": "0x0bf3de8c5d3e8a2b34d2beeb17abfcebaf363a59",
      "function": "ccipSend(uint64,(bytes,bytes,(address,uint256)[],address,bytes))",
      "arguments": [
        "6898391096552792247",
        "(0x000000000000000000000000a28de7725aebe0a8f727beccdcd80c12ae12d984, 0x, [(0xeAf907c962DF13c2E5e4b00e3cE5F748FaD7DafC, 100000)], 0x779877A7B0D9E8603169DdbD7836e478b4624789, 0x97a657c90000000000000000000000000000000000000000000000000000000000000000)"
      ],
      "transaction": {
        "from": "0xa28de7725aebe0a8f727beccdcd80c12ae12d984",
        "to": "0x0bf3de8c5d3e8a2b34d2beeb17abfcebaf363a59",
        "gas": "0x60b53",
        "value": "0x0",
        "input": "0x96f4e9f90000000000000000000000000000000000000000000000005fbc02272fbf20b7000000000000000000000000000000000000000000000000000000000000004000000000000000000000000000000000000000000000000000000000000000a000000000000000000000000000000000000000000000000000000000000000e00000000000000000000000000000000000000000000000000000000000000100000000000000000000000000779877a7b0d9e8603169ddbd7836e478b462478900000000000000000000000000000000000000000000000000000000000001600000000000000000000000000000000000000000000000000000000000000020000000000000000000000000a28de7725aebe0a8f727beccdcd80c12ae12d98400000000000000000000000000000000000000000000000000000000000000000000000000000000000000000000000000000000000000000000000000000001000000000000000000000000eaf907c962df13c2e5e4b00e3ce5f748fad7dafc00000000000000000000000000000000000000000000000000000000000186a0000000000000000000000000000000000000000000000000000000000000002497a657c9000000000000000000000000000000000000000000000000000000000000000000000000000000000000000000000000000000000000000000000000",
        "nonce": "0x8a",
        "chainId": "0xaa36a7"
      },
      "additionalContracts": [],
      "isFixedGasLimit": false
    }
  ],
  "receipts": [
    {
      "status": "0x1",
      "cumulativeGasUsed": "0x260b9d8",
      "logs": [
        {
          "address": "0x779877a7b0d9e8603169ddbd7836e478b4624789",
          "topics": [
            "0x8c5be1e5ebec7d5bd14f71427d1e84f3dd0314c0f7b2291e5b200ac8c7c3b925",
            "0x000000000000000000000000a28de7725aebe0a8f727beccdcd80c12ae12d984",
            "0x0000000000000000000000000bf3de8c5d3e8a2b34d2beeb17abfcebaf363a59"
          ],
          "data": "0x000000000000000000000000000000000000000000000000004af2277ec7b8be",
          "blockHash": "0x4b67cc2c7b243983a91ef16b8a10bacbe7cc50cf539af386340580bac4b8c268",
          "blockNumber": "0x968261",
          "blockTimestamp": "0x69436b60",
          "transactionHash": "0x52e04db161d7118292d60a8ca94ca221ec8582beaafd8aa9a3c843257f3eba1d",
          "transactionIndex": "0x4c",
          "logIndex": "0x4a5",
          "removed": false
        }
      ],
      "logsBloom": "0x00008004000040000000000000000000000000000000000000000000000000000000000000000000000000000000000000000000000000000000000000200000000000000000000000000000000000000000000000000000000000000000000000000000000100000000000000000000000000000000000000000000000000000000000000000000000000000000800000000000000000000000000000000000020000000004080000000000000000000000000000000000000000000000000000000000000000000000000000000000000000000000000100000000000000000010000000000000000000000000000000000000000000000000000000200000",
      "type": "0x2",
      "transactionHash": "0x52e04db161d7118292d60a8ca94ca221ec8582beaafd8aa9a3c843257f3eba1d",
      "transactionIndex": "0x4c",
      "blockHash": "0x4b67cc2c7b243983a91ef16b8a10bacbe7cc50cf539af386340580bac4b8c268",
      "blockNumber": "0x968261",
      "gasUsed": "0xb499",
      "effectiveGasPrice": "0x114fa24f2",
      "from": "0xa28de7725aebe0a8f727beccdcd80c12ae12d984",
      "to": "0x779877a7b0d9e8603169ddbd7836e478b4624789",
      "contractAddress": null
    },
    {
      "status": "0x1",
      "cumulativeGasUsed": "0x2617779",
      "logs": [
        {
          "address": "0xeaf907c962df13c2e5e4b00e3ce5f748fad7dafc",
          "topics": [
            "0x8c5be1e5ebec7d5bd14f71427d1e84f3dd0314c0f7b2291e5b200ac8c7c3b925",
            "0x000000000000000000000000a28de7725aebe0a8f727beccdcd80c12ae12d984",
            "0x0000000000000000000000000bf3de8c5d3e8a2b34d2beeb17abfcebaf363a59"
          ],
          "data": "0x00000000000000000000000000000000000000000000000000000000000186a0",
          "blockHash": "0x4b67cc2c7b243983a91ef16b8a10bacbe7cc50cf539af386340580bac4b8c268",
          "blockNumber": "0x968261",
          "blockTimestamp": "0x69436b60",
          "transactionHash": "0xaf2198eb6c287239137eb1c8af9b07a416563c36ca7dc30e9f2cba4efd32bc5f",
          "transactionIndex": "0x4d",
          "logIndex": "0x4a6",
          "removed": false
        }
      ],
      "logsBloom": "0x00008000000040000000000000000000000000000000000000000000000000000000000000000000000000000000000000000000000000000000000000200000000000000000000000000000000000000000000000000000000000000000000000000000000100000000000000000000000000000000000000000000000000000000000000000000000000000000000000000004000000000000000000000000020000000004080000000000000000000000000000000000000000010000000000000000000000000000000000000000000000000000000000000000000000000010000000000000000000000000004000000000000000000000000000200000",
      "type": "0x2",
      "transactionHash": "0xaf2198eb6c287239137eb1c8af9b07a416563c36ca7dc30e9f2cba4efd32bc5f",
      "transactionIndex": "0x4d",
      "blockHash": "0x4b67cc2c7b243983a91ef16b8a10bacbe7cc50cf539af386340580bac4b8c268",
      "blockNumber": "0x968261",
      "gasUsed": "0xbda1",
      "effectiveGasPrice": "0x114fa24f2",
      "from": "0xa28de7725aebe0a8f727beccdcd80c12ae12d984",
      "to": "0xeaf907c962df13c2e5e4b00e3ce5f748fad7dafc",
      "contractAddress": null
    },
    {
      "status": "0x1",
      "cumulativeGasUsed": "0x265d7b6",
      "logs": [
        {
          "address": "0x779877a7b0d9e8603169ddbd7836e478b4624789",
          "topics": [
            "0xddf252ad1be2c89b69c2b068fc378daa952ba7f163c4a11628f55a4df523b3ef",
            "0x000000000000000000000000a28de7725aebe0a8f727beccdcd80c12ae12d984",
            "0x000000000000000000000000a2865e4f36760f5fa5c8f958336120f2df0d974b"
          ],
          "data": "0x000000000000000000000000000000000000000000000000004af2277ec7b8be",
          "blockHash": "0x4b67cc2c7b243983a91ef16b8a10bacbe7cc50cf539af386340580bac4b8c268",
          "blockNumber": "0x968261",
          "blockTimestamp": "0x69436b60",
          "transactionHash": "0x3c2bc09ca69fa187a623bf621b0f7316c81c8f746bfeb0f36f1b374d9bef0e95",
          "transactionIndex": "0x4e",
          "logIndex": "0x4a7",
          "removed": false
        },
        {
          "address": "0x779877a7b0d9e8603169ddbd7836e478b4624789",
          "topics": [
            "0x8c5be1e5ebec7d5bd14f71427d1e84f3dd0314c0f7b2291e5b200ac8c7c3b925",
            "0x000000000000000000000000a28de7725aebe0a8f727beccdcd80c12ae12d984",
            "0x0000000000000000000000000bf3de8c5d3e8a2b34d2beeb17abfcebaf363a59"
          ],
          "data": "0x0000000000000000000000000000000000000000000000000000000000000000",
          "blockHash": "0x4b67cc2c7b243983a91ef16b8a10bacbe7cc50cf539af386340580bac4b8c268",
          "blockNumber": "0x968261",
          "blockTimestamp": "0x69436b60",
          "transactionHash": "0x3c2bc09ca69fa187a623bf621b0f7316c81c8f746bfeb0f36f1b374d9bef0e95",
          "transactionIndex": "0x4e",
          "logIndex": "0x4a8",
          "removed": false
        },
        {
          "address": "0xeaf907c962df13c2e5e4b00e3ce5f748fad7dafc",
          "topics": [
            "0xddf252ad1be2c89b69c2b068fc378daa952ba7f163c4a11628f55a4df523b3ef",
            "0x0000000000000000000000000000000000000000000000000000000000000000",
            "0x000000000000000000000000a28de7725aebe0a8f727beccdcd80c12ae12d984"
          ],
          "data": "0x0000000000000000000000000000000000000000000000000000000000000001",
          "blockHash": "0x4b67cc2c7b243983a91ef16b8a10bacbe7cc50cf539af386340580bac4b8c268",
          "blockNumber": "0x968261",
          "blockTimestamp": "0x69436b60",
          "transactionHash": "0x3c2bc09ca69fa187a623bf621b0f7316c81c8f746bfeb0f36f1b374d9bef0e95",
          "transactionIndex": "0x4e",
          "logIndex": "0x4a9",
          "removed": false
        },
        {
          "address": "0xeaf907c962df13c2e5e4b00e3ce5f748fad7dafc",
          "topics": [
            "0xddf252ad1be2c89b69c2b068fc378daa952ba7f163c4a11628f55a4df523b3ef",
            "0x0000000000000000000000000000000000000000000000000000000000000000",
            "0x000000000000000000000000c699a3c09436952a75c44e20bab7d10246d19454"
          ],
          "data": "0x0000000000000000000000000000000000000000000000000000000000000000",
          "blockHash": "0x4b67cc2c7b243983a91ef16b8a10bacbe7cc50cf539af386340580bac4b8c268",
          "blockNumber": "0x968261",
          "blockTimestamp": "0x69436b60",
          "transactionHash": "0x3c2bc09ca69fa187a623bf621b0f7316c81c8f746bfeb0f36f1b374d9bef0e95",
          "transactionIndex": "0x4e",
          "logIndex": "0x4aa",
          "removed": false
        },
        {
          "address": "0xeaf907c962df13c2e5e4b00e3ce5f748fad7dafc",
          "topics": [
            "0xddf252ad1be2c89b69c2b068fc378daa952ba7f163c4a11628f55a4df523b3ef",
            "0x000000000000000000000000a28de7725aebe0a8f727beccdcd80c12ae12d984",
            "0x000000000000000000000000c699a3c09436952a75c44e20bab7d10246d19454"
          ],
          "data": "0x00000000000000000000000000000000000000000000000000000000000186a0",
          "blockHash": "0x4b67cc2c7b243983a91ef16b8a10bacbe7cc50cf539af386340580bac4b8c268",
          "blockNumber": "0x968261",
          "blockTimestamp": "0x69436b60",
          "transactionHash": "0x3c2bc09ca69fa187a623bf621b0f7316c81c8f746bfeb0f36f1b374d9bef0e95",
          "transactionIndex": "0x4e",
          "logIndex": "0x4ab",
          "removed": false
        },
        {
          "address": "0xeaf907c962df13c2e5e4b00e3ce5f748fad7dafc",
          "topics": [
            "0xddf252ad1be2c89b69c2b068fc378daa952ba7f163c4a11628f55a4df523b3ef",
            "0x0000000000000000000000000000000000000000000000000000000000000000",
            "0x000000000000000000000000c699a3c09436952a75c44e20bab7d10246d19454"
          ],
          "data": "0x0000000000000000000000000000000000000000000000000000000000000000",
          "blockHash": "0x4b67cc2c7b243983a91ef16b8a10bacbe7cc50cf539af386340580bac4b8c268",
          "blockNumber": "0x968261",
          "blockTimestamp": "0x69436b60",
          "transactionHash": "0x3c2bc09ca69fa187a623bf621b0f7316c81c8f746bfeb0f36f1b374d9bef0e95",
          "transactionIndex": "0x4e",
          "logIndex": "0x4ac",
          "removed": false
        },
        {
          "address": "0xeaf907c962df13c2e5e4b00e3ce5f748fad7dafc",
          "topics": [
            "0xddf252ad1be2c89b69c2b068fc378daa952ba7f163c4a11628f55a4df523b3ef",
            "0x000000000000000000000000c699a3c09436952a75c44e20bab7d10246d19454",
            "0x0000000000000000000000000000000000000000000000000000000000000000"
          ],
          "data": "0x00000000000000000000000000000000000000000000000000000000000186a0",
          "blockHash": "0x4b67cc2c7b243983a91ef16b8a10bacbe7cc50cf539af386340580bac4b8c268",
          "blockNumber": "0x968261",
          "blockTimestamp": "0x69436b60",
          "transactionHash": "0x3c2bc09ca69fa187a623bf621b0f7316c81c8f746bfeb0f36f1b374d9bef0e95",
          "transactionIndex": "0x4e",
          "logIndex": "0x4ad",
          "removed": false
        },
        {
          "address": "0xa2865e4f36760f5fa5c8f958336120f2df0d974b",
          "topics": [
            "0xd0c3c799bf9e2639de44391e7f524d229b2b55f5b1ea94b2bf7da42f7243dddd"
          ],
          "data": "0x0000000000000000000000000000000000000000000000000000000000000020000000000000000000000000000000000000000000000000de41ba4fc9d91ad9000000000000000000000000a28de7725aebe0a8f727beccdcd80c12ae12d984000000000000000000000000a28de7725aebe0a8f727beccdcd80c12ae12d9840000000000000000000000000000000000000000000000000000000000000333000000000000000000000000000000000000000000000000000000000000000000000000000000000000000000000000000000000000000000000000000000000000000000000000000000000000000000000000000000000000000000000003000000000000000000000000779877a7b0d9e8603169ddbd7836e478b4624789000000000000000000000000000000000000000000000000004af2277ec7b8be00000000000000000000000000000000000000000000000000000000000001a000000000000000000000000000000000000000000000000000000000000001c00000000000000000000000000000000000000000000000000000000000000220779345e49e6901ff81e19c53251f7c2d82252fb37d6339b587c44f64ac99c12b00000000000000000000000000000000000000000000000000000000000000000000000000000000000000000000000000000000000000000000000000000001000000000000000000000000eaf907c962df13c2e5e4b00e3ce5f748fad7dafc00000000000000000000000000000000000000000000000000000000000186a00000000000000000000000000000000000000000000000000000000000000001000000000000000000000000000000000000000000000000000000000000002000000000000000000000000000000000000000000000000000000000000001600000000000000000000000000000000000000000000000000000000000000020000000000000000000000000000000000000000000000000000000000000008000000000000000000000000000000000000000000000000000000000000000c000000000000000000000000000000000000000000000000000000000000001000000000000000000000000000000000000000000000000000000000000015f900000000000000000000000000000000000000000000000000000000000000020000000000000000000000000c699a3c09436952a75c44e20bab7d10246d194540000000000000000000000000000000000000000000000000000000000000020000000000000000000000000421870761481734ad67660c7ea6fbe79a3e7b31f00000000000000000000000000000000000000000000000000000000000000200000000000000000000000000000000000000000000000000000000ba43b7400",
          "blockHash": "0x4b67cc2c7b243983a91ef16b8a10bacbe7cc50cf539af386340580bac4b8c268",
          "blockNumber": "0x968261",
          "blockTimestamp": "0x69436b60",
          "transactionHash": "0x3c2bc09ca69fa187a623bf621b0f7316c81c8f746bfeb0f36f1b374d9bef0e95",
          "transactionIndex": "0x4e",
          "logIndex": "0x4ae",
          "removed": false
        }
      ],
      "logsBloom": "0x00008004000040000000000000000000000000000000000000000000000000000000000000000000000000000000000000000000000000000000000000200000000000000000004000000008000000000000000000000000000000000000000010000000020100000000000000000800000000000000100000000010000000000000000000000000000000000000800000000004000000000000000000000000020000000004080400000000000000000000000000000000000100010000000200000002000000000002000000000000000000000100000100000000000020000010800000000000000000000000004004000800000000000000000000200000",
      "type": "0x2",
      "transactionHash": "0x3c2bc09ca69fa187a623bf621b0f7316c81c8f746bfeb0f36f1b374d9bef0e95",
      "transactionIndex": "0x4e",
      "blockHash": "0x4b67cc2c7b243983a91ef16b8a10bacbe7cc50cf539af386340580bac4b8c268",
      "blockNumber": "0x968261",
      "gasUsed": "0x4603d",
      "effectiveGasPrice": "0x114fa24f2",
      "from": "0xa28de7725aebe0a8f727beccdcd80c12ae12d984",
      "to": "0x0bf3de8c5d3e8a2b34d2beeb17abfcebaf363a59",
      "contractAddress": null
    }
  ],
  "libraries": [],
  "pending": [],
  "returns": {},
  "timestamp": 1766026083693,
  "chain": 11155111,
  "commit": null
}